:02000000F52BDE
:10000800FF00030E8301C1000A08C2008A017008BC
:10001800AA007108A9007208A8007308A70074084C
:10002800A6007508A5007808A4007908A3007B0835
:10003800A2007C08A1000B1D4728F8308100B90AEE
:100048000319BA0A3A08013A031D2C28F430390674
:10005800031D4528B901BA014C23C3227008831235
:10006800BB007108BC00F430F4000130F500D22266
:10007800FF30F4000330F50079227008B7007108EA
:10008800B800FB308B050C1D4B28FB308C050C1C75
:100098005228AD0A0319AE0AFE308C058B1C56286F
:1000A800FD308B052A08F0002908F1002808F20025
:1000B8002708F3002608F4002508F5002408F800AE
:1000C8002308F9002208FB002108FC0042088A00E6
:0A00D800410E8300FF0E7F0E0900A9
:1000E20083120313C901CA01C901CA0148084A029D
:1000F200031D7D28470849020318852800000000D7
:0A010200C90A0319CA0A7728080089
:10010C00831203132230FC00F801F901FA01FB0100
:10011C00FC030319BC280310FB0CFA0CF90CF80CAB
:10012C00F30CF20CF10CF00C031C8E28FC030319DD
:10013C00AE287408F80775080318750FF9077608C8
:10014C000318760FFA0777080318770FFB07922826
:10015C007408F80775080318750FF9077608031863
:0E016C00760FFA0777080318770FFB070800D5
:10017A0083120313FB01FA01F901F801A001730DBF
:10018A00F80D7408F8027508031C750FF902760851
:10019A00031C760FFA027708031C770FFB02000193
:1001AA00031C0130A002F30D0730FC00730DF80D9B
:1001BA00F90DFA0DFB0DA00D7408731CF628F80250
:1001CA007508031C750FF9027608031C760FFA02EC
:1001DA007708031C770FFB020001031C0130A00201
:1001EA000729F80775080318750FF9077608031821
:1001FA00760FFA0777080318770FFB070001031831
:10020A000130A007F30DFC0BDB28720DF80DF90D78
:10021A00FA0DFB0DA00D7408731C2529F802750848
:10022A00031C750FF9027608031C760FFA02770889
:10023A00031C770FFB020001031C0130A0023629C0
:10024A00F80775080318750FF90776080318760F6B
:10025A00FA0777080318770FFB0700010318013024
:10026A00A007F20D0730FC00720DF80DF90DFA0D1A
:10027A00FB0DA00D7408721C5429F8027508031CA2
:10028A00750FF9027608031C760FFA027708031C29
:10029A00770FFB020001031C0130A0026529F80751
:1002AA0075080318750FF90776080318760FFA0709
:1002BA0077080318770FFB07000103180130A0071E
:1002CA00F20DFC0B3929710DF80DF90DFA0DFB0D24
:1002DA00A00D7408721C8329F8027508031C750F97
:1002EA00F9027608031C760FFA027708031C770FC7
:1002FA00FB020001031C0130A0029429F8077508CB
:10030A000318750FF90776080318760FFA077708A6
:10031A000318770FFB07000103180130A007F10D3E
:10032A000730FC00710DF80DF90DFA0DFB0DA00D4B
:10033A007408711CB229F8027508031C750FF902BA
:10034A007608031C760FFA027708031C770FFB0264
:10035A000001031C0130A002C329F807750803181D
:10036A00750FF90776080318760FFA077708031846
:10037A00770FFB07000103180130A007F10DFC0BF2
:10038A009729700DF80DF90DFA0DFB0DA00D7408E3
:10039A00711CE129F8027508031C750FF902760829
:1003AA00031C760FFA027708031C770FFB02000181
:1003BA00031C0130A002F229F80775080318750F0B
:1003CA00F90776080318760FFA0777080318770FE4
:1003DA00FB07000103180130A007F00D0730FC00ED
:1003EA00700DF80DF90DFA0DFB0DA00D7408701CB7
:1003FA00102AF8027508031C750FF9027608031C07
:10040A00760FFA027708031C770FFB020001031C20
:10041A000130A002212AF80775080318750FF90799
:10042A0076080318760FFA0777080318770FFB0781
:10043A00000103180130A007F00DFC0BF529701814
:10044A00342A7408F80775080318750FF90776082F
:10045A000318760FFA0777080318770FFB070800C7
:0E046A00831203132C088A002B08820008005E
:0A047800053083120313860008000C
:0A0482000A308312031386000800FD
:0A048C0006308312031386000800F7
:08049600831203138601080024
:10049E0083120313AD01AE01AF01B001B101B20180
:1004AE00B301B401B501B601BD01BE01BF01C0016A
:1004BE008F018E0102308316890083128901C030AC
:0E04CE008B0483160C14183083129000080063
:1004DC00831603138601EF3088008701831286018F
:0604EC00FF30880008004B
:1004F20083120313F801F9011030FC00710DF80D9D
:10050200F90D7408F8027508031C750FF902031837
:10051200912A7408F80775080318750FF907031074
:0A052200F00DF10DFC0B7F2A08001C
:10052C003C220230FB000430FC00BA30FD00FD0B15
:0E053C009D2AFC0B9D2AFB0B9D2A0000080047
:10054A0046220230FB000430FC00BA30FD00FD0BED
:0E055A00AC2AFC0BAC2AFB0BAC2A00000800FC
:1005680041220230FB000430FC00BA30FD00FD0BD4
:0E057800BB2AFC0BBB2AFB0BBB2A00000800B1
:10058600831203131F151F1DC92AC62A1E08F10050
:0E059600F00183161E08F0040030F104080086
:1005A40083120313FB01FA01F9018030F800F10C06
:1005B400F00C031CE62A7408F90775080318750F74
:1005C400FA070318FB0A0310F01FEE2A7408FA074F
:1005D40075080318750FFB07FB0CFA0CF90CF80CE3
:1005E400031CD92A7B08F3007A08F2007908F10089
:0605F4007808F000080089
:1005FA005A30831203134507F30046080318013ED5
:10060A00F4000330F2007308F0007408F100720875
:10061A000319142BF00DF10D7010FF3E0D2BF43061
:10062A007007F30071080318013E013EF4007308D5
:10063A00F0007408F100F10CF00CF113711BF117C2
:10064A00F10CF00CF113711BF11770089500CF3003
:10065A001705F50003307305F2007208F000F00D7B
:10066A007010F00D7010F00D7010F00D7010700811
:10067A00750497000330FB000830FC007730FD005A
:0E068A00FD0B452BFC0B452BFB0B452B0800F5
:1006980083120313AD01AE018F018E01043089006E
:1006A8000A30C7000030C8007120890189185D2B05
:1006B8005A2B19309000891C622B5F2B1830900040
:1006C8000F08F100F0010E087004F8007108F90035
:1006D8000030F9042E08F7002D08F600F401F501A2
:1006E8007808F0007908F100F201F3017408F007C6
:1006F80075080318750FF10776080318760FF207C7
:1007080077080318770FF3077008AF007108B00077
:100718007208B1007308B2007008B3007108B40021
:100728007208B5007308B6002230F400F501F6012E
:10073800F7018620E830F4000330F500F601F701F0
:10074800BD207008F4007108F5007208F6007308FF
:10075800F700F70CF60CF50CF40CF7137408BD0051
:100768007508BE007608BF007708C0007708003C0F
:10077800031DC82B7608003C031DC82B7508003CD8
:10078800031DC82B7408643C0318CF2B6430BD00CC
:08079800BE01BF01C001080011
:1007A00035228A110A128000840AAB0A0319AC0AA6
:0807B000F003031DD02B08002B
:1007B800F9308316031387050C30831297000C3029
:0E07C8009D0007309204F9308316920008005D
:1007D6004130831203139F00CE3083169F000130F1
:0407E6008500080082
:1007EA000630831603139F0085016E22EF308805B9
:1007FA00F83081009701873083168100F0308B0032
:10080A004F22EB23DC23003083124002031D172CF6
:10081A0000303F02031D172C00303E02031D172C27
:10082A0014303D0203181C2C09144B22552C0818AD
:10083A001F2C96220819222CB4228818552CA5227E
:10084A000A30F4000030F5003708F0003808F100EB
:10085A0079227108003C031D342C7008033C0318EC
:10086A00392CEF308805552C4B220816C301C401D8
:10087A0080304406F00080307002031D462C0C3094
:10088A0043020318532CC501C601FD22B430C5002A
:10089A00C601FD22C30A0319C40A3D2CEF3088059C
:0608AA004B22082C572C24
:02400E004A2F37
:00000001FF
